{
  "transactions": [
    {
      "senderAddress": "0x7c41E0668B551f4f902cFaec05B5Bdca68b124CE",
      "receiverAddress": "0x9d72989b68777a1f3FfD6F1DB079f1928373eE52",
      "senderAddressBech32": "one103q7qe5t2505lypvltkqtddaef5tzfxwsse4z7",
      "receiverAddressBech32": "one1n4ef3xmgwaap70laduwmq703j2ph8mjjucrkf8",
      "nonce": "0x0",
      "value": "0x186a0",
      "gasLimit": "0x5208",
      "gasPrice": "0x174876e800",
      "rawTransaction": "0xf8698085174876e8008252088080949d72989b68777a1f3ffd6f1db079f1928373ee52830186a08027a0ab8229ff5d5240948098f26372eaed9ab2e9be23e8594b08e358ca56a47f8ae9a0084e5c4d1fec496af444423d8a714f65c079260ff01a1be1de7005dd424adf44"
    },
    {
      "senderAddress": "0x7c41E0668B551f4f902cFaec05B5Bdca68b124CE",
      "receiverAddress": "0x9d72989b68777a1f3FfD6F1DB079f1928373eE52",
      "senderAddressBech32": "one103q7qe5t2505lypvltkqtddaef5tzfxwsse4z7",
      "receiverAddressBech32": "one1n4ef3xmgwaap70laduwmq703j2ph8mjjucrkf8",
      "nonce": "0x1",
      "value": "0x30d40",
      "gasLimit": "0x5208",
      "gasPrice": "0x174876e800",
      "rawTransaction": "0xf8690185174876e8008252088080949d72989b68777a1f3ffd6f1db079f1928373ee5283030d408028a06c6a5900a44c13c4011ecf48d3149f7114e81d168e11422ce157475053083e94a039ce7ff13a2b79a81e98fb035a4068de54477d4bc671f4695fbd42f416a74cc3"
    },
    {
      "senderAddress": "0x7c41E0668B551f4f902cFaec05B5Bdca68b124CE",
      "receiverAddress": "0x9d72989b68777a1f3FfD6F1DB079f1928373eE52",
      "senderAddressBech32": "one103q7qe5t2505lypvltkqtddaef5tzfxwsse4z7",
      "receiverAddressBech32": "one1n4ef3xmgwaap70laduwmq703j2ph8mjjucrkf8",
      "nonce": "0x2",
      "value": "0x493e0",
      "gasLimit": "0x5208",
      "gasPrice": "0x174876e800",
      "rawTransaction": "0xf8690285174876e8008252088080949d72989b68777a1f3ffd6f1db079f1928373ee52830493e08028a0ccc0c2abb00a3133c570cea9281f6a134aa9e3b287b64ec42b608102d70a3f97a02418b19b7b567e6bdfbf49afb6b0980ee16fcf199ef587b62ac2187dd966868f"
    },
    {
      "senderAddress": "0x7c41E0668B551f4f902cFaec05B5Bdca68b124CE",
      "receiverAddress": "0x9d72989b68777a1f3FfD6F1DB079f1928373eE52",
      "senderAddressBech32": "one103q7qe5t2505lypvltkqtddaef5tzfxwsse4z7",
      "receiverAddressBech32": "one1n4ef3xmgwaap70laduwmq703j2ph8mjjucrkf8",
      "nonce": "0x3",
      "value": "0x61a80",
      "gasLimit": "0x5208",
      "gasPrice": "0x174876e800",
      "rawTransaction": "0xf8690385174876e8008252088080949d72989b68777a1f3ffd6f1db079f1928373ee5283061a808027a054705b19391ca26d6b13d78cd81fd48d172dbd7b3498edb575d0f4afaa67a8aaa044bb3117d943f6ecfff97d3d45df0ff9bdb1899c0b69f93e6e4a81685a4a7ea0"
    },
    {
      "senderAddress": "0x7c41E0668B551f4f902cFaec05B5Bdca68b124CE",
      "receiverAddress": "0x9d72989b68777a1f3FfD6F1DB079f1928373eE52",
      "senderAddressBech32": "one103q7qe5t2505lypvltkqtddaef5tzfxwsse4z7",
      "receiverAddressBech32": "one1n4ef3xmgwaap70laduwmq703j2ph8mjjucrkf8",
      "nonce": "0x4",
      "value": "0x7a120",
      "gasLimit": "0x5208",
      "gasPrice": "0x174876e800",
      "rawTransaction": "0xf8690485174876e8008252088080949d72989b68777a1f3ffd6f1db079f1928373ee528307a1208027a0bf688cfcdc88e07d700ccaab88a1856a33ea74ba10188dbde369cd326b629801a074db255ddf1b9cbf95980ff0433bdbb1f1282cf8a4cb0a02d240fba82992fb0d"
    },
    {
      "senderAddress": "0x7c41E0668B551f4f902cFaec05B5Bdca68b124CE",
      "receiverAddress": "0x9d72989b68777a1f3FfD6F1DB079f1928373eE52",
      "senderAddressBech32": "one103q7qe5t2505lypvltkqtddaef5tzfxwsse4z7",
      "receiverAddressBech32": "one1n4ef3xmgwaap70laduwmq703j2ph8mjjucrkf8",
      "nonce": "0x5",
      "value": "0x927c0",
      "gasLimit": "0x5208",
      "gasPrice": "0x174876e800",
      "rawTransaction": "0xf8690585174876e8008252088080949d72989b68777a1f3ffd6f1db079f1928373ee52830927c08028a092648d648460e9ebc56597dbe6cdccad3465f0f81aa47d00d1ae1b4319c72977a0565ea274e20717a3b9eafd4e4adfaba25590ced567087d034253a48098ad9590"
    },
    {
      "senderAddress": "0x7c41E0668B551f4f902cFaec05B5Bdca68b124CE",
      "receiverAddress": "0x9d72989b68777a1f3FfD6F1DB079f1928373eE52",
      "senderAddressBech32": "one103q7qe5t2505lypvltkqtddaef5tzfxwsse4z7",
      "receiverAddressBech32": "one1n4ef3xmgwaap70laduwmq703j2ph8mjjucrkf8",
      "nonce": "0x6",
      "value": "0xaae60",
      "gasLimit": "0x5208",
      "gasPrice": "0x174876e800",
      "rawTransaction": "0xf8690685174876e8008252088080949d72989b68777a1f3ffd6f1db079f1928373ee52830aae608027a0522cee53d8b50d745c748f8d3be146d2c1c96a9b14f036f1fe6ab5e34a20afe0a00f6a048024bb665440b56414c1c3592c91a01287ef79fbf058d0dc10cc48c673"
    },
    {
      "senderAddress": "0x7c41E0668B551f4f902cFaec05B5Bdca68b124CE",
      "receiverAddress": "0x9d72989b68777a1f3FfD6F1DB079f1928373eE52",
      "senderAddressBech32": "one103q7qe5t2505lypvltkqtddaef5tzfxwsse4z7",
      "receiverAddressBech32": "one1n4ef3xmgwaap70laduwmq703j2ph8mjjucrkf8",
      "nonce": "0x7",
      "value": "0xc3500",
      "gasLimit": "0x5208",
      "gasPrice": "0x174876e800",
      "rawTransaction": "0xf8690785174876e8008252088080949d72989b68777a1f3ffd6f1db079f1928373ee52830c35008027a0a45f535b7ca45b8073a9cc5065a2cb58bc5574395a05f10883f71d6184d86d0ca04ef79ebcbef8aa266a51e8ebe2d2c203fd033c8032f2243a0ab6b14f8e45700f"
    },
    {
      "senderAddress": "0x7c41E0668B551f4f902cFaec05B5Bdca68b124CE",
      "receiverAddress": "0x9d72989b68777a1f3FfD6F1DB079f1928373eE52",
      "senderAddressBech32": "one103q7qe5t2505lypvltkqtddaef5tzfxwsse4z7",
      "receiverAddressBech32": "one1n4ef3xmgwaap70laduwmq703j2ph8mjjucrkf8",
      "nonce": "0x8",
      "value": "0xdbba0",
      "gasLimit": "0x5208",
      "gasPrice": "0x174876e800",
      "rawTransaction": "0xf8690885174876e8008252088080949d72989b68777a1f3ffd6f1db079f1928373ee52830dbba08027a08e63da2b95526b271536e1e53ccb81b5a580da234d59887cda8f69adc1d97dd7a0660db05c1685ba6978fa14c0da92ce19b89e6f973b0590cfed828082b962cdf3"
    },
    {
      "senderAddress": "0x7c41E0668B551f4f902cFaec05B5Bdca68b124CE",
      "receiverAddress": "0x9d72989b68777a1f3FfD6F1DB079f1928373eE52",
      "senderAddressBech32": "one103q7qe5t2505lypvltkqtddaef5tzfxwsse4z7",
      "receiverAddressBech32": "one1n4ef3xmgwaap70laduwmq703j2ph8mjjucrkf8",
      "nonce": "0x9",
      "value": "0xf4240",
      "gasLimit": "0x5208",
      "gasPrice": "0x174876e800",
      "rawTransaction": "0xf8690985174876e8008252088080949d72989b68777a1f3ffd6f1db079f1928373ee52830f42408028a022efd1decb6e80e88fd33f5e189f48105acc72f7e302931221183f86ca8a7015a02001dee44471a5397a4579f733b3a13a86ba1d6c78ad3312187513d6a424f72b"
    }
  ],
  "hashes": [
    "0x5aE91eCA3BF7CB97FCd1305bD6e030e24bda9bbfED3b8c741Efe808e8D4F95Ff",
    "0xf4CA9DdED0bC36B5AFBCf4fC6De082DFd0F7FCFad1c2aFC1aF52d16d9Dbd733f",
    "0x56C2408c5F58ac9aDFE824B7755f3b54CB0848c7A837Ea1CC5a0FdB521D4A1a2",
    "0xACFD09AD729E0C9f23EC9eEf27CC68bA37D7EE9D53aABace2dDD42616Eb8351A",
    "0xB8baee4EfB120254Afab3092c8Ccc458fF49eBda12ead9950CD39ac8Bb26D4C1",
    "0x412D8DBF0BC3dCAf91A0339EEadd1EEB44b44cD0cEBFaea0d35656d31F96Dde9",
    "0xbbeDcd6e4dCDef0c666C0C0c7914ba1E5617F8d57ddc40C32cCb31D4BC5CAfBF",
    "0x6E008bEbC8F2CE750d208dbF987edEf7476DcFDF8Eb8607f3B3c2E1ce8675ba9",
    "0x0Ff0AcBD45cdDf3A8A148eb2F4Fe6dBf74B422eabdD0766ba9284f0Fe8F6dc8a",
    "0x7FDCEE6B5EEf5C3F82B2Ffe8a088E0d3d485bEbBcdBCac16ECCb9d1cbfe50c91"
  ],
  "blockHashes": [
    "0x9dD4e063d8cc7A6Fe74a0E3AC4feD5F84eB8Bdc4647Ba8DAd651FD1b4a3979cE",
    "0xEF5F7D7ca60bE76c1Cc5aADD8DC9e1bC0F7a3BCD0EEDA6e9Cca0EACAd99BE3Bb",
    "0x4261B409CCcDA3ab97aABCFe8dECCfd65D1aB9Bb536dD57Fdafd191FC6BbFbbc",
    "0x1fb05a17794cAd1ac025469eA1Bf5af4F33f9bdbD3c0e14bCeca323BC5DF0EC3",
    "0xEA405dB5dc0E7e2DB2CfdBf272DCeAf69E9CDa2DFD47229b38A3C5b7b9cc41fB",
    "0xCC1ADfef1bb2E496A3BbDb181ec5c8EA047AE340FaD6fF4FeF3CCE452c1975B6",
    "0x80dffAe15B6619Cc7aD74Bc132C1b29EFc38B8d8CAD1AfbDb9E37f7357E2EBe4",
    "0x6BcB9858d8cCE9de2a6ECd6392A5eC712be9b4A79F6Cf84De8aa5ae9C04f60A8",
    "0xB6De43A866dFcE1f7AA7DA0E8e9eb7Fe545cB6becF7cf5fdC564B22C4cBb72b9",
    "0xc4b4CeAEAEadADfa8CbCcDeFdcBaBeF999dBF42D14C9AFEDd1de2956B571CebD"
  ]
}
