{
  "transactions": [
    {
      "senderAddress": "0x3e881F6C36A3A14a2D1816b0A5471d1caBB16F33",
      "receiverAddress": "0x9d72989b68777a1f3FfD6F1DB079f1928373eE52",
      "senderAddressBech32": "one186yp7mpk5ws55tgcz6c223carj4mzmenaal5wz",
      "receiverAddressBech32": "one1n4ef3xmgwaap70laduwmq703j2ph8mjjucrkf8",
      "nonce": "0x0",
      "value": "0x186a0",
      "gasLimit": "0x5208",
      "gasPrice": "0x174876e800",
      "rawTransaction": "0xf8698085174876e8008252088080949d72989b68777a1f3ffd6f1db079f1928373ee52830186a0801ca06d9f530844b9fd5ad649c9151a53e104e9db9bfe41d68c3db7c1ea4e053e0c50a02ebd5d15d84e01232d3d933806c79c09f4df7be959b2883a0f54f085f0737e43"
    },
    {
      "senderAddress": "0x3e881F6C36A3A14a2D1816b0A5471d1caBB16F33",
      "receiverAddress": "0x9d72989b68777a1f3FfD6F1DB079f1928373eE52",
      "senderAddressBech32": "one186yp7mpk5ws55tgcz6c223carj4mzmenaal5wz",
      "receiverAddressBech32": "one1n4ef3xmgwaap70laduwmq703j2ph8mjjucrkf8",
      "nonce": "0x1",
      "value": "0x30d40",
      "gasLimit": "0x5208",
      "gasPrice": "0x174876e800",
      "rawTransaction": "0xf8690185174876e8008252088080949d72989b68777a1f3ffd6f1db079f1928373ee5283030d40801ba0ea2ad64ff72be2ea7f40b406a8ded60a74b03cc5209d0d3f9c7779daf1bb576ba01cbd1885f66c1f0bb2bc06c7ca40295b5bb1ec7cf0ebe7f5ec53fbfb29bc0373"
    },
    {
      "senderAddress": "0x3e881F6C36A3A14a2D1816b0A5471d1caBB16F33",
      "receiverAddress": "0x9d72989b68777a1f3FfD6F1DB079f1928373eE52",
      "senderAddressBech32": "one186yp7mpk5ws55tgcz6c223carj4mzmenaal5wz",
      "receiverAddressBech32": "one1n4ef3xmgwaap70laduwmq703j2ph8mjjucrkf8",
      "nonce": "0x2",
      "value": "0x493e0",
      "gasLimit": "0x5208",
      "gasPrice": "0x174876e800",
      "rawTransaction": "0xf8690285174876e8008252088080949d72989b68777a1f3ffd6f1db079f1928373ee52830493e0801ba05e5f8867869b4375a75baa71ed1e5871684cddd0bbe89dbe161e32819585652ea05d4de4b01a93d0c475c21b6f1bfe91509ab74cc86f6a6211dd76116ae0ba0ff3"
    },
    {
      "senderAddress": "0x3e881F6C36A3A14a2D1816b0A5471d1caBB16F33",
      "receiverAddress": "0x9d72989b68777a1f3FfD6F1DB079f1928373eE52",
      "senderAddressBech32": "one186yp7mpk5ws55tgcz6c223carj4mzmenaal5wz",
      "receiverAddressBech32": "one1n4ef3xmgwaap70laduwmq703j2ph8mjjucrkf8",
      "nonce": "0x3",
      "value": "0x61a80",
      "gasLimit": "0x5208",
      "gasPrice": "0x174876e800",
      "rawTransaction": "0xf8690385174876e8008252088080949d72989b68777a1f3ffd6f1db079f1928373ee5283061a80801ba00aedf5e3b2930da417576909e6567f1745fc90de1d0faac043b9853f2108ec6ca04be11e35cf2c0a70fb3b95628f743ca6491b52f8668b030d173bb949570e9965"
    },
    {
      "senderAddress": "0x3e881F6C36A3A14a2D1816b0A5471d1caBB16F33",
      "receiverAddress": "0x9d72989b68777a1f3FfD6F1DB079f1928373eE52",
      "senderAddressBech32": "one186yp7mpk5ws55tgcz6c223carj4mzmenaal5wz",
      "receiverAddressBech32": "one1n4ef3xmgwaap70laduwmq703j2ph8mjjucrkf8",
      "nonce": "0x4",
      "value": "0x7a120",
      "gasLimit": "0x5208",
      "gasPrice": "0x174876e800",
      "rawTransaction": "0xf8690485174876e8008252088080949d72989b68777a1f3ffd6f1db079f1928373ee528307a120801ca016b5a3dfa0d41d6c818ff480dda2c947b97be29c4df29de16331cf42f453b52da05df999089b955280a143ce3f1df6542d83c580418aa66ad0fc23061079c9fbf0"
    },
    {
      "senderAddress": "0x3e881F6C36A3A14a2D1816b0A5471d1caBB16F33",
      "receiverAddress": "0x9d72989b68777a1f3FfD6F1DB079f1928373eE52",
      "senderAddressBech32": "one186yp7mpk5ws55tgcz6c223carj4mzmenaal5wz",
      "receiverAddressBech32": "one1n4ef3xmgwaap70laduwmq703j2ph8mjjucrkf8",
      "nonce": "0x5",
      "value": "0x927c0",
      "gasLimit": "0x5208",
      "gasPrice": "0x174876e800",
      "rawTransaction": "0xf8690585174876e8008252088080949d72989b68777a1f3ffd6f1db079f1928373ee52830927c0801ba00944e851189f2f9d69ef17bb767b35c10ab2a302c08e0781d9320ebf4c269391a079eb3547e3426bab7077b81b19d4063d10c3f5c5c7d6fb6c137cb5b3742f38ab"
    },
    {
      "senderAddress": "0x3e881F6C36A3A14a2D1816b0A5471d1caBB16F33",
      "receiverAddress": "0x9d72989b68777a1f3FfD6F1DB079f1928373eE52",
      "senderAddressBech32": "one186yp7mpk5ws55tgcz6c223carj4mzmenaal5wz",
      "receiverAddressBech32": "one1n4ef3xmgwaap70laduwmq703j2ph8mjjucrkf8",
      "nonce": "0x6",
      "value": "0xaae60",
      "gasLimit": "0x5208",
      "gasPrice": "0x174876e800",
      "rawTransaction": "0xf8690685174876e8008252088080949d72989b68777a1f3ffd6f1db079f1928373ee52830aae60801ba00b67a57271f2fbb4290c09a4555053d799c0df0211062e19b6aebaa38c1a9619a00c5204b0c8f5ff5a37bf8fccb6592932c157d8621db35114e621e503de32d47e"
    },
    {
      "senderAddress": "0x3e881F6C36A3A14a2D1816b0A5471d1caBB16F33",
      "receiverAddress": "0x9d72989b68777a1f3FfD6F1DB079f1928373eE52",
      "senderAddressBech32": "one186yp7mpk5ws55tgcz6c223carj4mzmenaal5wz",
      "receiverAddressBech32": "one1n4ef3xmgwaap70laduwmq703j2ph8mjjucrkf8",
      "nonce": "0x7",
      "value": "0xc3500",
      "gasLimit": "0x5208",
      "gasPrice": "0x174876e800",
      "rawTransaction": "0xf8690785174876e8008252088080949d72989b68777a1f3ffd6f1db079f1928373ee52830c3500801ca0683035ced391473fec92d5eca428c3383f59dcd5a4d3a5c81cab8560ff76d4cda00f01d8078d9f558d872921208d1b3d7698ea88832d6e3a39cd6ccedeb90f738b"
    },
    {
      "senderAddress": "0x3e881F6C36A3A14a2D1816b0A5471d1caBB16F33",
      "receiverAddress": "0x9d72989b68777a1f3FfD6F1DB079f1928373eE52",
      "senderAddressBech32": "one186yp7mpk5ws55tgcz6c223carj4mzmenaal5wz",
      "receiverAddressBech32": "one1n4ef3xmgwaap70laduwmq703j2ph8mjjucrkf8",
      "nonce": "0x8",
      "value": "0xdbba0",
      "gasLimit": "0x5208",
      "gasPrice": "0x174876e800",
      "rawTransaction": "0xf8690885174876e8008252088080949d72989b68777a1f3ffd6f1db079f1928373ee52830dbba0801ca010af0f27c1a5663df2f81ee6b824fc2c040b698d386f2a9ff9a2dddfe8ad564aa04b2464808a1ea6bd4d7d3f37e5a189e0f8d5abc3b9c231da2bc0c31e27149388"
    },
    {
      "senderAddress": "0x3e881F6C36A3A14a2D1816b0A5471d1caBB16F33",
      "receiverAddress": "0x9d72989b68777a1f3FfD6F1DB079f1928373eE52",
      "senderAddressBech32": "one186yp7mpk5ws55tgcz6c223carj4mzmenaal5wz",
      "receiverAddressBech32": "one1n4ef3xmgwaap70laduwmq703j2ph8mjjucrkf8",
      "nonce": "0x9",
      "value": "0xf4240",
      "gasLimit": "0x5208",
      "gasPrice": "0x174876e800",
      "rawTransaction": "0xf8690985174876e8008252088080949d72989b68777a1f3ffd6f1db079f1928373ee52830f4240801ca0ff540fe2800c12ed5bf03a48b33472e4ae0751cb910cb10496545667d70c7a90a0258a23052db64b0c638285405f0781611387791fe083e5df4da5a896a8585d4c"
    }
  ]
}
