{
  "transactions": [
    {
      "senderAddress": "0x3e881F6C36A3A14a2D1816b0A5471d1caBB16F33",
      "receiverAddress": "0x9d72989b68777a1f3FfD6F1DB079f1928373eE52",
      "senderAddressBech32": "one186yp7mpk5ws55tgcz6c223carj4mzmenaal5wz",
      "receiverAddressBech32": "one1n4ef3xmgwaap70laduwmq703j2ph8mjjucrkf8",
      "nonce": "0x0",
      "value": "0x186a0",
      "gasLimit": "0x5208",
      "gasPrice": "0x174876e800",
      "rawTransaction": "0xf8678085174876e80082520880949d72989b68777a1f3ffd6f1db079f1928373ee52830186a0801b9f2be9f10eb49c40894d0b7d8988d2d27c1d88650353ca70153e8e16103a790ca07056f94ac737842163be168de72c0e3d5990bc19629f5332ac783be5da031bb3"
    },
    {
      "senderAddress": "0x3e881F6C36A3A14a2D1816b0A5471d1caBB16F33",
      "receiverAddress": "0x9d72989b68777a1f3FfD6F1DB079f1928373eE52",
      "senderAddressBech32": "one186yp7mpk5ws55tgcz6c223carj4mzmenaal5wz",
      "receiverAddressBech32": "one1n4ef3xmgwaap70laduwmq703j2ph8mjjucrkf8",
      "nonce": "0x1",
      "value": "0x30d40",
      "gasLimit": "0x5208",
      "gasPrice": "0x174876e800",
      "rawTransaction": "0xf8680185174876e80082520880949d72989b68777a1f3ffd6f1db079f1928373ee5283030d40801ca0b623805a367d9e79cc7266a35032a1ba9412152b3c6989203519aca9339720fea0082e1aad322dd4106a1196f5e052b5f639e112f1e8c820d356c7fefce607ff2b"
    },
    {
      "senderAddress": "0x3e881F6C36A3A14a2D1816b0A5471d1caBB16F33",
      "receiverAddress": "0x9d72989b68777a1f3FfD6F1DB079f1928373eE52",
      "senderAddressBech32": "one186yp7mpk5ws55tgcz6c223carj4mzmenaal5wz",
      "receiverAddressBech32": "one1n4ef3xmgwaap70laduwmq703j2ph8mjjucrkf8",
      "nonce": "0x2",
      "value": "0x493e0",
      "gasLimit": "0x5208",
      "gasPrice": "0x174876e800",
      "rawTransaction": "0xf8680285174876e80082520880949d72989b68777a1f3ffd6f1db079f1928373ee52830493e0801ca0f4715a68f94e6b537703c343dbc654f059a1b83e233e216ccaecc72beb35926fa02a2e1806fbebeece5d731d9c2976121c3fc5babe9fe439cb575775152cb92b11"
    },
    {
      "senderAddress": "0x3e881F6C36A3A14a2D1816b0A5471d1caBB16F33",
      "receiverAddress": "0x9d72989b68777a1f3FfD6F1DB079f1928373eE52",
      "senderAddressBech32": "one186yp7mpk5ws55tgcz6c223carj4mzmenaal5wz",
      "receiverAddressBech32": "one1n4ef3xmgwaap70laduwmq703j2ph8mjjucrkf8",
      "nonce": "0x3",
      "value": "0x61a80",
      "gasLimit": "0x5208",
      "gasPrice": "0x174876e800",
      "rawTransaction": "0xf8680385174876e80082520880949d72989b68777a1f3ffd6f1db079f1928373ee5283061a80801ca030bdf0a64e6640d8222a93d6a2327f1762c8581a21ec160871eb2adfb85bcce0a0720845084e12dd0d4243914393cf54e672ea463c53f2a57db7e1084d7c048954"
    },
    {
      "senderAddress": "0x3e881F6C36A3A14a2D1816b0A5471d1caBB16F33",
      "receiverAddress": "0x9d72989b68777a1f3FfD6F1DB079f1928373eE52",
      "senderAddressBech32": "one186yp7mpk5ws55tgcz6c223carj4mzmenaal5wz",
      "receiverAddressBech32": "one1n4ef3xmgwaap70laduwmq703j2ph8mjjucrkf8",
      "nonce": "0x4",
      "value": "0x7a120",
      "gasLimit": "0x5208",
      "gasPrice": "0x174876e800",
      "rawTransaction": "0xf8680485174876e80082520880949d72989b68777a1f3ffd6f1db079f1928373ee528307a120801ba0223fe6b882ee538873465bb54b3347da630e7a542948ebc190576b0aadd96deea0160ab6c41b2b5b92bea7730f6c73b476b32672019a50df48fa596fbd295f8b63"
    },
    {
      "senderAddress": "0x3e881F6C36A3A14a2D1816b0A5471d1caBB16F33",
      "receiverAddress": "0x9d72989b68777a1f3FfD6F1DB079f1928373eE52",
      "senderAddressBech32": "one186yp7mpk5ws55tgcz6c223carj4mzmenaal5wz",
      "receiverAddressBech32": "one1n4ef3xmgwaap70laduwmq703j2ph8mjjucrkf8",
      "nonce": "0x5",
      "value": "0x927c0",
      "gasLimit": "0x5208",
      "gasPrice": "0x174876e800",
      "rawTransaction": "0xf8680585174876e80082520880949d72989b68777a1f3ffd6f1db079f1928373ee52830927c0801ba0fbd8a54ce5518759e13a81c7e8f04d59cced6b94b416be5879aff7fa35d23474a06bb21d9e9187b524f2f806455596702a6f77a3a35f1d8f9ec2542870bfe72c3b"
    },
    {
      "senderAddress": "0x3e881F6C36A3A14a2D1816b0A5471d1caBB16F33",
      "receiverAddress": "0x9d72989b68777a1f3FfD6F1DB079f1928373eE52",
      "senderAddressBech32": "one186yp7mpk5ws55tgcz6c223carj4mzmenaal5wz",
      "receiverAddressBech32": "one1n4ef3xmgwaap70laduwmq703j2ph8mjjucrkf8",
      "nonce": "0x6",
      "value": "0xaae60",
      "gasLimit": "0x5208",
      "gasPrice": "0x174876e800",
      "rawTransaction": "0xf8680685174876e80082520880949d72989b68777a1f3ffd6f1db079f1928373ee52830aae60801ba04dc73552ad4124f8e2713f3c22646cdbf3a752fee7198dd7cdbe63601f44961fa060c9c95d0f5964bc553c4ff2508a78386ffcba37d38a7d0db54175196c68faac"
    },
    {
      "senderAddress": "0x3e881F6C36A3A14a2D1816b0A5471d1caBB16F33",
      "receiverAddress": "0x9d72989b68777a1f3FfD6F1DB079f1928373eE52",
      "senderAddressBech32": "one186yp7mpk5ws55tgcz6c223carj4mzmenaal5wz",
      "receiverAddressBech32": "one1n4ef3xmgwaap70laduwmq703j2ph8mjjucrkf8",
      "nonce": "0x7",
      "value": "0xc3500",
      "gasLimit": "0x5208",
      "gasPrice": "0x174876e800",
      "rawTransaction": "0xf8680785174876e80082520880949d72989b68777a1f3ffd6f1db079f1928373ee52830c3500801ca062e8b74afe1455265d756456d886c3d4fd359da05e985ff1bb73864da16c82c8a005386292815dc9d5d36800e25c77aa2f96b41e02ac98c3d63216c87f57be361a"
    },
    {
      "senderAddress": "0x3e881F6C36A3A14a2D1816b0A5471d1caBB16F33",
      "receiverAddress": "0x9d72989b68777a1f3FfD6F1DB079f1928373eE52",
      "senderAddressBech32": "one186yp7mpk5ws55tgcz6c223carj4mzmenaal5wz",
      "receiverAddressBech32": "one1n4ef3xmgwaap70laduwmq703j2ph8mjjucrkf8",
      "nonce": "0x8",
      "value": "0xdbba0",
      "gasLimit": "0x5208",
      "gasPrice": "0x174876e800",
      "rawTransaction": "0xf8680885174876e80082520880949d72989b68777a1f3ffd6f1db079f1928373ee52830dbba0801ca0d7d5cf8d987befeae8709b285986179c692fb7b8aaa4babed1456fb2d36973efa0484cf5dfca0a4548d81abc8b8a4f0cceceb9c8b9395bb6e897788439cfe53d71"
    },
    {
      "senderAddress": "0x3e881F6C36A3A14a2D1816b0A5471d1caBB16F33",
      "receiverAddress": "0x9d72989b68777a1f3FfD6F1DB079f1928373eE52",
      "senderAddressBech32": "one186yp7mpk5ws55tgcz6c223carj4mzmenaal5wz",
      "receiverAddressBech32": "one1n4ef3xmgwaap70laduwmq703j2ph8mjjucrkf8",
      "nonce": "0x9",
      "value": "0xf4240",
      "gasLimit": "0x5208",
      "gasPrice": "0x174876e800",
      "rawTransaction": "0xf8680985174876e80082520880949d72989b68777a1f3ffd6f1db079f1928373ee52830f4240801ba0bf12ce8ba1d0ed89f271c65bd39697442097c963814923a90862452cbc7ede96a0371976de1e6cbe34fbdd542388dceccc9e000391cabf83b9d8be4f3b5ef7f18b"
    }
  ]
}
